:1000000071C0FECFFDCFFCCFFBCFFACFF9CFF8CF39
:10001000B4C13EC1F5CFF4CFF3CFF2CFF1CFF0CFE3
:10002000EFCFEECFEDCF1027E80364000A00010008
:100030000010000110000100380000000000000066
:10004000253032693A253032693A25303269002547
:100050003032692C253031692C25303269004B2033
:100060004F4646004B204F4E0053204F464600530C
:10007000204F4E0048414354524F754B410041427E
:10008000544F4B4F504D794C4C494B4100504152CD
:1000900020312020204F4E20204F464600504F4414
:1000A000434245544B410050415220322020204FC2
:1000B0004E20204F464600455849543F0042204BB1
:1000C000204A490042206249204B204A490080C012
:1000D000020002003800060004003A000200860117
:1000E000CE000000F894EE27ECBBF1E0FBBFEBBFC5
:1000F000E5BF8DE0A2E0BB27ED938A95E9F780E0AC
:1001000094E0A0E6ED930197E9F7E0EDF0E085914A
:100110009591009761F0A591B59105901590BF015B
:10012000F00105900D920197E1F7FB01F0CFEFE5AB
:10013000EDBFE4E0EEBFC0E6D1E0F9C299D51A9375
:100140009AD57BD6E7701E2F96D5EF70F070E983B5
:10015000FA83EAE0E19FF001A981BA81EA0FFB1F6F
:10016000E983FA8388D5188123960895AA931A9370
:10017000E4B3E560E4BBAA9A81D5A19A10E01830F7
:1001800008F014C07FD5A981B0E0EA23FB23BF01AA
:1001900079D5E617F70709F002C0A99A01C0A99816
:1001A000A89A6CD5A998A8981F5FE9CF18812296C4
:1001B0000895BCD610E0A19800E0083008F012C005
:1001C000A89A999906C0E02FA1E026D6E0951E23B3
:1001D00004C0E02FA1E020D61E2B50D5A8984ED504
:1001E0000F5FEBCFAA984AD5E12F09911991089595
:1001F000A1E84DD5E0937401F0937501A3E847D5CC
:10020000E0937601F0937701A5E8B0DFD2DFA8E7AD
:10021000B1E0F0E041D543D5E072F070E0938201A7
:10022000F09383013CD5E078F070E0938401F09383
:100230008501A0918401B0918501A038E0E0BE075E
:1002400009F005C02CD5EF71F0702ED504C027D56C
:10025000EF73F07029D52DD571DF26D5A7E817D516
:10026000E0937C01F0937D01A9E811D5E0937A0138
:10027000F0937B01ABE87ADF9CDFA0E8B1E0F0E02F
:100280000BD5ADE804D5E0937E01F0937F0108958E
:100290000A926A937A938A939A93AA93BA93EA9367
:1002A000FA93EFB7EA93E3E8E2BF08D508F055C048
:1002B000F201309709F002C0C7982EC009D509F0A5
:1002C00002C0969A29C0E230A0E0FA0709F002C005
:1002D000979822C0E330A0E0FA0709F002C0959A8F
:1002E0001BC0E430A0E0FA0709F002C0969814C0E1
:1002F000E530A0E0FA0709F002C0C79A0DC0E63069
:10030000A0E0FA0709F002C0959806C0E730A0E027
:10031000FA0709F001C0979A22FC0CC0F20131964D
:100320002F01E7E0F0E0E415F5050CF002C04424ED
:1003300055240BC0F20131972F01002440145004C2
:100340000CF003C0E7E0F0E02F01A0E7B1E0A8D592
:10035000319760407040A9D504C0C7989598969889
:100360009798E991EFBFF991E991B991A991999184
:10037000899179916991099018950A921A92FA9245
:100380006A937A938A939A93AA93BA93EA93FA9385
:10039000EFB7EA93EFECEDBDECE2ECBDF401309782
:1003A00009F06CC025DF98D4E0E4F0E09AD477D46B
:1003B0009BD4E0917601F091770196D4E09174019D
:1003C000F091750191D493D498D4A0E6B1E0EAD32A
:1003D00020FE0DC06ED458970CF408C0A091760191
:1003E000B0917701DC970CF401C001C01AC074D43D
:1003F000EFE4F0E076D4E0917C01F0917D0174D4DB
:10040000E0917A01F0917B016FD4E0917E01F0914F
:100410007F016AD46CD473D4A0E6B1E0C3D36894EE
:1004200020F86FD450D5309709F006C0EAE06CD4BC
:10043000AEE5B0E0C8D305C0EAE066D4A4E6B0E01B
:10044000C2D364D440D5309709F006C0EAE061D445
:10045000A9E6B0E0B8D305C0EAE05BD4AFE6B0E00F
:10046000B2D323FE03C024FE01C004C0E1E0F0E0EB
:1004700052D455D425FC00C055D4C3C029D409F0AA
:1004800017C05ED3E3E045D4A4E7B0E09CD323FEDD
:1004900003C024FE01C006C053D38824992445D448
:1004A000E89420F825FC03C03DD442D44F01A9C0F4
:1004B000E230A0E0FA0709F01AC042D3E1E024D408
:1004C0003AD4E1E026D4ADE8B0E07DD323FC03C00C
:1004D000EAE0F0E020D424FC04C0E3E0F0E04F01C7
:1004E0001ED425FC03C0E4E1F0E028D48AC0E33048
:1004F000A0E0FA0709F019C023D3E4E005D420D422
:10050000E1E007D4A7EAB0E05ED323FC02C010D438
:1005100002D424FC04C0EAE0F0E04F0100D425FC42
:1005200003C0EEE1F0E00AD46CC0EA30A0E0FA07C4
:1005300009F019C005D3E5E0E7D3A7EBB0E043D35A
:1005400023FC03C0E3E0F0E0E6D324FC03C0F0D3D7
:100550004F01E5D325FC06C0F3D2E89420F88824A7
:100560009924E0D34EC0E431A0E0FA0709F022C09C
:10057000E7D223FC02C0C5D3E6D324FC02C0C1D31A
:10058000E6D3BFD3A0D4A4D309F008C0E1E0BCD324
:10059000D2D3E1D3ADEBB0E016D307C0E1E0B4D3E2
:1005A000CAD3D9D3A4ECB0E00ED325FC02C0C0D38B
:1005B000C5D327C0EE31A0E0FA0709F022C0C0D2AF
:1005C00023FC02C0A3D3BFD324FC02C09FD3BFD35C
:1005D0009DD379D47DD309F008C0E4E095D3B0D39E
:1005E000BAD3ADEBB0E0EFD207C0E4E08DD3A8D32F
:1005F000B2D3A4ECB0E0E7D225FC03C0E3E0F0E026
:100600009DD3D301EAE0F0E039D4309709F00CC073
:10061000B49902C0E89423F8B39902C0E89424F88E
:10062000B29902C0E89425F86CD34DD4319709F003
:1006300009C03FD3549709F005C021FC03C026FC34
:1006400001C001C007C0689421F8E89422F86894BA
:1006500026F827F82ED3549709F402C0E89426F818
:1006600021FE08C022FC06C029D309F003C027FEE2
:1006700001C001C007C0E0E0F0EE61E070E06DD3C2
:10068000E89427F821FE08C022FC06C017D309F021
:1006900003C027FC01C001C00BC0689422F8E89495
:1006A00021F8E0E0F0E263E070E057D3689430F8BE
:1006B00030FE06C003D309F003C022FE01C001C012
:1006C00009C0E89422F8E0E0F0E461E070E045D38E
:1006D000E89430F81BD3F7D3319709F00BC0E9D277
:1006E00019970CF405C0E5D257970CF001C001C072
:1006F00001C001C002C0C59A01C0C598F30131967E
:100700003F01E2E3F0E0E615F7050CF002C06624D5
:100710007724E991EFBFF991E991B991A991999164
:10072000899179916991F990199009901895E3EE62
:10073000E7BBECE1E8BBE3E0E4BBE0E0E5BBEFEF07
:10074000E1BBE2BBE3E0E3BFE3E8E2BFE0E0EFBD33
:10075000E3E0EEBDEBE0EDBDECEDECBDE0E0E7BDD0
:10076000E6BDEBBDEABDE9BDE8BDE5E0E9BFA0E15E
:100770003CD27894FFCFFFCF7BD2D8D3F7D212965A
:100780008BD3309709F422C0F1D2F3D28F01309786
:1007900009F001C00DC00230E0E01E0708F40EC0F1
:1007A000F80131978F01AA81BB811496ED93FC93D8
:1007B000DDD21296E1D23197AC81A083D7D26CD32F
:1007C000FF230AF402C0D2D2D7D204C0CFD2EFEFB7
:1007D000FFEF62D2B2D3259608954AD22697A2D3CC
:1007E00010E0AC85BD85E0E0F0E056D2EA89FB89F7
:1007F0003196EA8BFB8B3197E4912E2FE03009F490
:1008000029C1E12FE03009F007C0253209F002C00C
:1008100011E001C0B7D21DC1E13009F019C0253285
:1008200009F003C0AFD210E014C112E040E000E0D4
:100830002D3209F002C001E00CC12B3209F002C0D8
:100840004BE207C1203209F002C040E202C103C0FE
:10085000E23009F008C050E013E0203309F002C094
:100860000068F7C003C0E33009F0F3C0203308F498
:1008700004C02A3308F001C001C007C0AAE05A9F93
:10088000502DE22FE0535E0FE4C0E22FE33609F073
:1008900008C07FD281D27DD2A481AA9381D2D8C050
:1008A00003C0E33709F007C081D282D284D2C9D114
:1008B0001E2F0AC003C0E03709F00BC077D278D2F0
:1008C0007AD2CAD11E2F086002600F7730E037C09D
:1008D00003C0E43609F001C003C0E93609F002C0E4
:1008E000046003C0E53709F006C0E6E2F0E068D234
:1008F00015E00DC003C0E83509F002C0086003C070
:10090000E83709F0A5C0E0E3F0E05AD214E002FFB6
:1009100013C04CD24DD257D2AB85AA230AF005C0E2
:10092000EA85FB8575D24FD24DE2403009F402C012
:100930001F5F01C00B7F03C039D23AD244D200FD01
:1009400011C0151708F00EC007FF08C002FF04C051
:100950000B7F242F115001C020E301C020E212D2EE
:100960005150EFCF312F01FF17C0303009F413C0C1
:1009700003FF05C0EE81FF81259122D205C0AE8123
:10098000BF812D91AE83BF83FDD1503009F401C0EA
:1009900051503150EACF52C020E3EE81FF818AD21C
:1009A000E887F987EE81FF8132960AD2E885F985DA
:1009B000AA85BB85AE17BF0708F409C02F5FA885BD
:1009C000B985EA85FB85EA1BFB0BFDD1EFCF2A3306
:1009D00008F405C003FF02C0295F01C0295D04FFC0
:1009E00001C020C0213308F006C0A885B985119741
:1009F00009F401C002C000610CC0531708F403C021
:100A000000FD01C001C013C020E207FF0BC020E3BE
:100A1000006102FF07C00B7F4A93C2D1503009F436
:100A200001C05150AFD1503009F401C05150315084
:100A3000A885B985129708F401C0AECF00FF08C0A1
:100A4000503009F405C05150E0E2EA93A9D1F8CF43
:100A500010E0CCCEAC85BD851FD26BD264960895D4
:100A6000FF92F82E269760D2B1D1309709F006C0D8
:100A7000EFEFFFEF60D22A96FF900895DE01169601
:100A8000C3D18D01A3D19CD1E0E0E887E987DE01E5
:100A90001A96BAD101D225D11A930A93ECEBF3E05E
:100AA00020D1DE011A9699DE9F01AE81BF81E0E080
:100AB000EC93F90140D22A96FF900895AA93E88119
:100AC000E07109F402C0929A01C09298E881E07244
:100AD00009F402C0939A01C09398E881E07409F484
:100AE00002C0949A01C09498E881E07809F402C0A9
:100AF000C69A01C0C6986FD1919A6DD191986BD169
:100B000021960895AA93A881D9DFE881E295E88328
:100B1000A881D4DF85E88A95F1F721960895AA93F4
:100B2000E881F0E0EA57FE4FE081A981AE0FEADFED
:100B3000E981E0938A01E881E0938B012296089590
:100B4000A2E04DD1ACE0DEDFA1E049D1E0E0E093EE
:100B50008B01E0938A010895AA93A881AA3009F431
:100B600008C0E0918C01A0918A01AE1708F001C085
:100B70000EC0E0E0EA93A0918B01AF5FA0938B01E0
:100B8000CEDFA881AA3009F002C021960895E09135
:100B90008A01EF5FE0938A01909AA881B3DF909871
:100BA0002196089565D01A93A981BA81ED91A98300
:100BB000BA831E2FE03009F403C0A12FCDDFF4CF9C
:100BC00018812396089554D01A9355D03196E9830D
:100BD000FA833197E4911E2FE03009F403C0A12F6E
:100BE000BBDFF3CF188123960895AA938A9A8B9A34
:100BF0008C9ABE9A899A889AB99A91989098C19835
:100C0000E881E0938C01E058E0938801E881E054AA
:100C1000E0938901A4E1B0E0EDD0E5D0E4D0E3D0E9
:100C2000A0E24CDF88EC90E00197F1F7A8E26ADFE0
:100C3000A4E068DFA5E866DFA6E064DF81DF219637
:100C4000089516D0A991B991EE27FF276D916623DB
:100C500011F03196FBCF08950BD0AA27BB27E9915D
:100C6000F9910590002011F01196FBCFFD01089538
:100C7000BA93AA930895E981FA81089583E08A9549
:100C8000F1F70895E12FA1E0B0E0CED008956EDA3B
:100C900090DAF0E0DF0152CAED93FC930895E09101
:100CA0007801F09179010895E0937801F09379014A
:100CB0000895A0917801B09179010895A0917001F3
:100CC000B0917101809172019091730125D10895C5
:100CD000E130A0E0FA070895E0E6F1E0FA93EA9344
:100CE0000895FA93EA930895B1D0E8D008958CE07E
:100CF000B7DE6096E0E0EA930895A0E010CFA1E0AF
:100D00000ECFA0E0B0E00895EA93F7CFA2E0B0E004
:100D10000895EA93F4CF4F01689423F808956894F6
:100D200024F80895689425F80895689423F8F7CF77
:100D3000E2E0F0E00895AEE7B0E045CF4F01F2CF3A
:100D4000ADE9B0E040CFE1E0F0E0CDD0EECFE0E0C3
:100D5000F0E0C9D0EACFE4E0DCCFE0937001F0939B
:100D6000710160937201709373010895AA81BB8130
:100D70000895149691D00895ED91FD913196FE93CA
:100D8000EE9308952A93AD85BE85EF85F889099580
:100D90000895E889F98908953497E88BF98B0895C7
:100DA000AD85BE85EF85F88909950895F2DFF4CF0A
:100DB000A889B989DECFEE83FF83AE81BF81089514
:100DC000EE83FF830895EA87FB870895DE011C9672
:100DD0001BD062D008958DE08A95F1F7089592DED8
:100DE000A3E0B0E007C0A0E369DE88EC90E00197E3
:100DF000F1F70895109639F080ED97E00197F1F73B
:100E0000A8951197C9F708950024AF0DB01D089556
:100E1000F195E195F0400895EE230E2EEA2F19F09A
:100E2000EE0F0A94E9F70895EE230E2EFD0121F04E
:100E3000EE0FFF1F0A94E1F70895F595E795F595F4
:100E4000E795F595E795F595E79508956F2F660F6A
:100E5000660B762F08950024112490E1AA0FBB1F82
:100E6000001C111C0E1A1F0A18F40E0E1F1E01C0C2
:100E7000A1609A9599F7FD01D0010895E894B7FF14
:100E800004C0A095B09511966894F7FDC1DFE3DF2B
:100E9000FD010EF4BDDF0895ED91FC9111970895C9
:100EA000ED91FD916D917D9108957E936E93FE93EA
:100EB000EE9308950590F491E02D08957A936A9346
:100EC000FA93EA930895119602D0FE2F1197E199B3
:100ED000FECFFF93FFB7F894AEBBBFBBE09AEDB374
:100EE000FFBFFF91089507D01196EF93EF2F03D026
:100EF000EF9111970895E19B02C0A895FCCF9FB791
:100F0000F894AEBBBFBBE09A8DB3E81719F0EDBB08
:100F1000E29AE19A9FBF089500240A160B0608067C
:100F2000090608955A934A933A932A931A930A9377
:100F300008955D814C813B812A8119810881089542
:00000001FF
